{
  "_format": "hh-sol-artifact-1",
  "contractName": "BelzToken",
  "sourceName": "contracts/BelzToken.sol",
  "abi": [
    {
      "inputs": [],
      "stateMutability": "nonpayable",
      "type": "constructor"
    },
    {
      "anonymous": false,
      "inputs": [
        {
          "indexed": true,
          "internalType": "address",
          "name": "owner",
          "type": "address"
        },
        {
          "indexed": true,
          "internalType": "address",
          "name": "spender",
          "type": "address"
        },
        {
          "indexed": false,
          "internalType": "uint256",
          "name": "value",
          "type": "uint256"
        }
      ],
      "name": "Approval",
      "type": "event"
    },
    {
      "anonymous": false,
      "inputs": [
        {
          "indexed": true,
          "internalType": "address",
          "name": "_to",
          "type": "address"
        },
        {
          "indexed": false,
          "internalType": "uint256",
          "name": "_amount",
          "type": "uint256"
        }
      ],
      "name": "Mint",
      "type": "event"
    },
    {
      "anonymous": false,
      "inputs": [
        {
          "indexed": true,
          "internalType": "address",
          "name": "_user",
          "type": "address"
        },
        {
          "indexed": false,
          "internalType": "uint256",
          "name": "_amount",
          "type": "uint256"
        },
        {
          "indexed": false,
          "internalType": "uint256",
          "name": "_time",
          "type": "uint256"
        }
      ],
      "name": "TokensRequested",
      "type": "event"
    },
    {
      "anonymous": false,
      "inputs": [
        {
          "indexed": true,
          "internalType": "address",
          "name": "_from",
          "type": "address"
        },
        {
          "indexed": true,
          "internalType": "address",
          "name": "_to",
          "type": "address"
        },
        {
          "indexed": false,
          "internalType": "uint256",
          "name": "value",
          "type": "uint256"
        }
      ],
      "name": "Transfer",
      "type": "event"
    },
    {
      "inputs": [],
      "name": "MAX_SUPPLY",
      "outputs": [
        {
          "internalType": "uint256",
          "name": "",
          "type": "uint256"
        }
      ],
      "stateMutability": "view",
      "type": "function"
    },
    {
      "inputs": [],
      "name": "REQUEST_AMOUNT",
      "outputs": [
        {
          "internalType": "uint256",
          "name": "",
          "type": "uint256"
        }
      ],
      "stateMutability": "view",
      "type": "function"
    },
    {
      "inputs": [],
      "name": "REQUEST_INTERVAL",
      "outputs": [
        {
          "internalType": "uint256",
          "name": "",
          "type": "uint256"
        }
      ],
      "stateMutability": "view",
      "type": "function"
    },
    {
      "inputs": [
        {
          "internalType": "address",
          "name": "",
          "type": "address"
        },
        {
          "internalType": "address",
          "name": "",
          "type": "address"
        }
      ],
      "name": "allowance",
      "outputs": [
        {
          "internalType": "uint256",
          "name": "",
          "type": "uint256"
        }
      ],
      "stateMutability": "view",
      "type": "function"
    },
    {
      "inputs": [
        {
          "internalType": "address",
          "name": "_spender",
          "type": "address"
        },
        {
          "internalType": "uint256",
          "name": "_amount",
          "type": "uint256"
        }
      ],
      "name": "approve",
      "outputs": [
        {
          "internalType": "bool",
          "name": "",
          "type": "bool"
        }
      ],
      "stateMutability": "nonpayable",
      "type": "function"
    },
    {
      "inputs": [
        {
          "internalType": "address",
          "name": "",
          "type": "address"
        }
      ],
      "name": "balanceOf",
      "outputs": [
        {
          "internalType": "uint256",
          "name": "",
          "type": "uint256"
        }
      ],
      "stateMutability": "view",
      "type": "function"
    },
    {
      "inputs": [
        {
          "internalType": "uint256",
          "name": "_amount",
          "type": "uint256"
        }
      ],
      "name": "burn",
      "outputs": [],
      "stateMutability": "nonpayable",
      "type": "function"
    },
    {
      "inputs": [
        {
          "internalType": "address",
          "name": "_user",
          "type": "address"
        }
      ],
      "name": "canRequest",
      "outputs": [
        {
          "internalType": "bool",
          "name": "",
          "type": "bool"
        }
      ],
      "stateMutability": "view",
      "type": "function"
    },
    {
      "inputs": [],
      "name": "decimals",
      "outputs": [
        {
          "internalType": "uint8",
          "name": "",
          "type": "uint8"
        }
      ],
      "stateMutability": "view",
      "type": "function"
    },
    {
      "inputs": [
        {
          "internalType": "address",
          "name": "",
          "type": "address"
        }
      ],
      "name": "lastRequestTime",
      "outputs": [
        {
          "internalType": "uint256",
          "name": "",
          "type": "uint256"
        }
      ],
      "stateMutability": "view",
      "type": "function"
    },
    {
      "inputs": [
        {
          "internalType": "address",
          "name": "_to",
          "type": "address"
        },
        {
          "internalType": "uint256",
          "name": "_amount",
          "type": "uint256"
        }
      ],
      "name": "mint",
      "outputs": [],
      "stateMutability": "nonpayable",
      "type": "function"
    },
    {
      "inputs": [],
      "name": "name",
      "outputs": [
        {
          "internalType": "string",
          "name": "",
          "type": "string"
        }
      ],
      "stateMutability": "view",
      "type": "function"
    },
    {
      "inputs": [],
      "name": "owner",
      "outputs": [
        {
          "internalType": "address",
          "name": "",
          "type": "address"
        }
      ],
      "stateMutability": "view",
      "type": "function"
    },
    {
      "inputs": [],
      "name": "requestToken",
      "outputs": [],
      "stateMutability": "nonpayable",
      "type": "function"
    },
    {
      "inputs": [],
      "name": "symbol",
      "outputs": [
        {
          "internalType": "string",
          "name": "",
          "type": "string"
        }
      ],
      "stateMutability": "view",
      "type": "function"
    },
    {
      "inputs": [
        {
          "internalType": "address",
          "name": "_user",
          "type": "address"
        }
      ],
      "name": "timeUntilNextRequest",
      "outputs": [
        {
          "internalType": "uint256",
          "name": "",
          "type": "uint256"
        }
      ],
      "stateMutability": "view",
      "type": "function"
    },
    {
      "inputs": [],
      "name": "totalSupply",
      "outputs": [
        {
          "internalType": "uint256",
          "name": "",
          "type": "uint256"
        }
      ],
      "stateMutability": "view",
      "type": "function"
    },
    {
      "inputs": [
        {
          "internalType": "address",
          "name": "_to",
          "type": "address"
        },
        {
          "internalType": "uint256",
          "name": "_amount",
          "type": "uint256"
        }
      ],
      "name": "transfer",
      "outputs": [
        {
          "internalType": "bool",
          "name": "",
          "type": "bool"
        }
      ],
      "stateMutability": "nonpayable",
      "type": "function"
    },
    {
      "inputs": [
        {
          "internalType": "address",
          "name": "_from",
          "type": "address"
        },
        {
          "internalType": "address",
          "name": "_to",
          "type": "address"
        },
        {
          "internalType": "uint256",
          "name": "_amount",
          "type": "uint256"
        }
      ],
      "name": "transferFrom",
      "outputs": [
        {
          "internalType": "bool",
          "name": "",
          "type": "bool"
        }
      ],
      "stateMutability": "nonpayable",
      "type": "function"
    },
    {
      "inputs": [
        {
          "internalType": "address",
          "name": "_newOwner",
          "type": "address"
        }
      ],
      "name": "transferOwnership",
      "outputs": [],
      "stateMutability": "nonpayable",
      "type": "function"
    }
  ],
  "bytecode": "0x60806040526012600260006101000a81548160ff021916908360ff16021790555034801561002c57600080fd5b506040518060400160405280600481526020017f42656c7a0000000000000000000000000000000000000000000000000000000081525060009081610071919061034d565b506040518060400160405280600381526020017f424c5a0000000000000000000000000000000000000000000000000000000000815250600190816100b6919061034d565b5033600460006101000a81548173ffffffffffffffffffffffffffffffffffffffff021916908373ffffffffffffffffffffffffffffffffffffffff16021790555061041f565b600081519050919050565b7f4e487b7100000000000000000000000000000000000000000000000000000000600052604160045260246000fd5b7f4e487b7100000000000000000000000000000000000000000000000000000000600052602260045260246000fd5b6000600282049050600182168061017e57607f821691505b60208210810361019157610190610137565b5b50919050565b60008190508160005260206000209050919050565b60006020601f8301049050919050565b600082821b905092915050565b6000600883026101f97fffffffffffffffffffffffffffffffffffffffffffffffffffffffffffffffff826101bc565b61020386836101bc565b95508019841693508086168417925050509392505050565b6000819050919050565b6000819050919050565b600061024a6102456102408461021b565b610225565b61021b565b9050919050565b6000819050919050565b6102648361022f565b61027861027082610251565b8484546101c9565b825550505050565b600090565b61028d610280565b61029881848461025b565b505050565b5b818110156102bc576102b1600082610285565b60018101905061029e565b5050565b601f821115610301576102d281610197565b6102db846101ac565b810160208510156102ea578190505b6102fe6102f6856101ac565b83018261029d565b50505b505050565b600082821c905092915050565b600061032460001984600802610306565b1980831691505092915050565b600061033d8383610313565b9150826002028217905092915050565b610356826100fd565b67ffffffffffffffff81111561036f5761036e610108565b5b6103798254610166565b6103848282856102c0565b600060209050601f8311600181146103b757600084156103a5578287015190505b6103af8582610331565b865550610417565b601f1984166103c586610197565b60005b828110156103ed578489015182556001820191506020850194506020810190506103c8565b8683101561040a5784890151610406601f891682610313565b8355505b6001600288020188555050505b505050505050565b611f8b8061042e6000396000f3fe608060405234801561001057600080fd5b506004361061012c5760003560e01c80634d7ec628116100ad5780639f294e51116100715780639f294e5114610335578063a9059cbb14610365578063dd62ed3e14610395578063ef0dee04146103c5578063f2fde38b146103e35761012c565b80634d7ec6281461028f57806370a08231146102995780638da5cb5b146102c957806395d89b41146102e75780639c37288c146103055761012c565b8063313ce567116100f4578063313ce567146101eb57806332cb6b0c14610209578063394f61811461022757806340c10f191461025757806342966c68146102735761012c565b806306fdde0314610131578063095ea7b31461014f57806316d26e3a1461017f57806318160ddd1461019d57806323b872dd146101bb575b600080fd5b6101396103ff565b60405161014691906115ea565b60405180910390f35b610169600480360381019061016491906116a5565b61048d565b6040516101769190611700565b60405180910390f35b6101876105ed565b604051610194919061172a565b60405180910390f35b6101a56105fa565b6040516101b2919061172a565b60405180910390f35b6101d560048036038101906101d09190611745565b610600565b6040516101e29190611700565b60405180910390f35b6101f36109a3565b60405161020091906117b4565b60405180910390f35b6102116109b6565b60405161021e919061172a565b60405180910390f35b610241600480360381019061023c91906117cf565b6109c5565b60405161024e919061172a565b60405180910390f35b610271600480360381019061026c91906116a5565b6109dd565b005b61028d600480360381019061028891906117fc565b610ac9565b005b610297610c66565b005b6102b360048036038101906102ae91906117cf565b610da8565b6040516102c0919061172a565b60405180910390f35b6102d1610dc0565b6040516102de9190611838565b60405180910390f35b6102ef610de6565b6040516102fc91906115ea565b60405180910390f35b61031f600480360381019061031a91906117cf565b610e74565b60405161032c9190611700565b60405180910390f35b61034f600480360381019061034a91906117cf565b610ece565b60405161035c919061172a565b60405180910390f35b61037f600480360381019061037a91906116a5565b610f47565b60405161038c9190611700565b60405180910390f35b6103af60048036038101906103aa9190611853565b611205565b6040516103bc919061172a565b60405180910390f35b6103cd61122a565b6040516103da919061172a565b60405180910390f35b6103fd60048036038101906103f891906117cf565b611231565b005b6000805461040c906118c2565b80601f0160208091040260200160405190810160405280929190818152602001828054610438906118c2565b80156104855780601f1061045a57610100808354040283529160200191610485565b820191906000526020600020905b81548152906001019060200180831161046857829003601f168201915b505050505081565b60008073ffffffffffffffffffffffffffffffffffffffff168373ffffffffffffffffffffffffffffffffffffffff16036104fd576040517f08c379a00000000000000000000000000000000000000000000000000000000081526004016104f49061193f565b60405180910390fd5b81600660003373ffffffffffffffffffffffffffffffffffffffff1673ffffffffffffffffffffffffffffffffffffffff16815260200190815260200160002060008573ffffffffffffffffffffffffffffffffffffffff1673ffffffffffffffffffffffffffffffffffffffff168152602001908152602001600020819055508273ffffffffffffffffffffffffffffffffffffffff163373ffffffffffffffffffffffffffffffffffffffff167f8c5be1e5ebec7d5bd14f71427d1e84f3dd0314c0f7b2291e5b200ac8c7c3b925846040516105db919061172a565b60405180910390a36001905092915050565b683635c9adc5dea0000081565b60035481565b60008073ffffffffffffffffffffffffffffffffffffffff168373ffffffffffffffffffffffffffffffffffffffff1603610670576040517f08c379a0000000000000000000000000000000000000000000000000000000008152600401610667906119ab565b60405180910390fd5b600082116106b3576040517f08c379a00000000000000000000000000000000000000000000000000000000081526004016106aa90611a17565b60405180910390fd5b81600560008673ffffffffffffffffffffffffffffffffffffffff1673ffffffffffffffffffffffffffffffffffffffff168152602001908152602001600020541015610735576040517f08c379a000000000000000000000000000000000000000000000000000000000815260040161072c90611a83565b60405180910390fd5b81600660008673ffffffffffffffffffffffffffffffffffffffff1673ffffffffffffffffffffffffffffffffffffffff16815260200190815260200160002060003373ffffffffffffffffffffffffffffffffffffffff1673ffffffffffffffffffffffffffffffffffffffff1681526020019081526020016000205410156107f4576040517f08c379a00000000000000000000000000000000000000000000000000000000081526004016107eb90611aef565b60405180910390fd5b81600660008673ffffffffffffffffffffffffffffffffffffffff1673ffffffffffffffffffffffffffffffffffffffff16815260200190815260200160002060003373ffffffffffffffffffffffffffffffffffffffff1673ffffffffffffffffffffffffffffffffffffffff16815260200190815260200160002060008282546108809190611b3e565b9250508190555081600560008673ffffffffffffffffffffffffffffffffffffffff1673ffffffffffffffffffffffffffffffffffffffff16815260200190815260200160002060008282546108d69190611b3e565b9250508190555081600560008573ffffffffffffffffffffffffffffffffffffffff1673ffffffffffffffffffffffffffffffffffffffff168152602001908152602001600020600082825461092c9190611b72565b925050819055508273ffffffffffffffffffffffffffffffffffffffff168473ffffffffffffffffffffffffffffffffffffffff167fddf252ad1be2c89b69c2b068fc378daa952ba7f163c4a11628f55a4df523b3ef84604051610990919061172a565b60405180910390a3600190509392505050565b600260009054906101000a900460ff1681565b6a084595161401484a00000081565b60076020528060005260406000206000915090505481565b600460009054906101000a900473ffffffffffffffffffffffffffffffffffffffff1673ffffffffffffffffffffffffffffffffffffffff163373ffffffffffffffffffffffffffffffffffffffff1614610a6d576040517f08c379a0000000000000000000000000000000000000000000000000000000008152600401610a6490611bf2565b60405180910390fd5b610a778282611374565b8173ffffffffffffffffffffffffffffffffffffffff167f0f6798a560793a54c3bcfe86a93cde1e73087d944c0ea20544137d412139688582604051610abd919061172a565b60405180910390a25050565b60008111610b0c576040517f08c379a0000000000000000000000000000000000000000000000000000000008152600401610b0390611c5e565b60405180910390fd5b80600560003373ffffffffffffffffffffffffffffffffffffffff1673ffffffffffffffffffffffffffffffffffffffff168152602001908152602001600020541015610b8e576040517f08c379a0000000000000000000000000000000000000000000000000000000008152600401610b8590611a83565b60405180910390fd5b80600560003373ffffffffffffffffffffffffffffffffffffffff1673ffffffffffffffffffffffffffffffffffffffff1681526020019081526020016000206000828254610bdd9190611b3e565b925050819055508060036000828254610bf69190611b3e565b92505081905550600073ffffffffffffffffffffffffffffffffffffffff163373ffffffffffffffffffffffffffffffffffffffff167fddf252ad1be2c89b69c2b068fc378daa952ba7f163c4a11628f55a4df523b3ef83604051610c5b919061172a565b60405180910390a350565b62015180600760003373ffffffffffffffffffffffffffffffffffffffff1673ffffffffffffffffffffffffffffffffffffffff16815260200190815260200160002054610cb49190611b72565b421015610cf6576040517f08c379a0000000000000000000000000000000000000000000000000000000008152600401610ced90611cf0565b60405180910390fd5b42600760003373ffffffffffffffffffffffffffffffffffffffff1673ffffffffffffffffffffffffffffffffffffffff16815260200190815260200160002081905550610d4d33683635c9adc5dea00000611374565b3373ffffffffffffffffffffffffffffffffffffffff167f1545c907bc00c8c1959efb40287a1f8a7f5bc5041e5d550c3adef488ef337508683635c9adc5dea0000042604051610d9e929190611d10565b60405180910390a2565b60056020528060005260406000206000915090505481565b600460009054906101000a900473ffffffffffffffffffffffffffffffffffffffff1681565b60018054610df3906118c2565b80601f0160208091040260200160405190810160405280929190818152602001828054610e1f906118c2565b8015610e6c5780601f10610e4157610100808354040283529160200191610e6c565b820191906000526020600020905b815481529060010190602001808311610e4f57829003601f168201915b505050505081565b600062015180600760008473ffffffffffffffffffffffffffffffffffffffff1673ffffffffffffffffffffffffffffffffffffffff16815260200190815260200160002054610ec49190611b72565b4210159050919050565b60008062015180600760008573ffffffffffffffffffffffffffffffffffffffff1673ffffffffffffffffffffffffffffffffffffffff16815260200190815260200160002054610f1f9190611b72565b9050804210610f32576000915050610f42565b4281610f3e9190611b3e565b9150505b919050565b60008073ffffffffffffffffffffffffffffffffffffffff168373ffffffffffffffffffffffffffffffffffffffff1603610fb7576040517f08c379a0000000000000000000000000000000000000000000000000000000008152600401610fae906119ab565b60405180910390fd5b3373ffffffffffffffffffffffffffffffffffffffff168373ffffffffffffffffffffffffffffffffffffffff1603611025576040517f08c379a000000000000000000000000000000000000000000000000000000000815260040161101c90611d85565b60405180910390fd5b60008211611068576040517f08c379a000000000000000000000000000000000000000000000000000000000815260040161105f90611a17565b60405180910390fd5b81600560003373ffffffffffffffffffffffffffffffffffffffff1673ffffffffffffffffffffffffffffffffffffffff1681526020019081526020016000205410156110ea576040517f08c379a00000000000000000000000000000000000000000000000000000000081526004016110e190611a83565b60405180910390fd5b81600560003373ffffffffffffffffffffffffffffffffffffffff1673ffffffffffffffffffffffffffffffffffffffff16815260200190815260200160002060008282546111399190611b3e565b9250508190555081600560008573ffffffffffffffffffffffffffffffffffffffff1673ffffffffffffffffffffffffffffffffffffffff168152602001908152602001600020600082825461118f9190611b72565b925050819055508273ffffffffffffffffffffffffffffffffffffffff163373ffffffffffffffffffffffffffffffffffffffff167fddf252ad1be2c89b69c2b068fc378daa952ba7f163c4a11628f55a4df523b3ef846040516111f3919061172a565b60405180910390a36001905092915050565b6006602052816000526040600020602052806000526040600020600091509150505481565b6201518081565b600460009054906101000a900473ffffffffffffffffffffffffffffffffffffffff1673ffffffffffffffffffffffffffffffffffffffff163373ffffffffffffffffffffffffffffffffffffffff16146112c1576040517f08c379a00000000000000000000000000000000000000000000000000000000081526004016112b890611bf2565b60405180910390fd5b600073ffffffffffffffffffffffffffffffffffffffff168173ffffffffffffffffffffffffffffffffffffffff1603611330576040517f08c379a000000000000000000000000000000000000000000000000000000000815260040161132790611df1565b60405180910390fd5b80600460006101000a81548173ffffffffffffffffffffffffffffffffffffffff021916908373ffffffffffffffffffffffffffffffffffffffff16021790555050565b600073ffffffffffffffffffffffffffffffffffffffff168273ffffffffffffffffffffffffffffffffffffffff16036113e3576040517f08c379a00000000000000000000000000000000000000000000000000000000081526004016113da90611e5d565b60405180910390fd5b60008111611426576040517f08c379a000000000000000000000000000000000000000000000000000000000815260040161141d90611ec9565b60405180910390fd5b6a084595161401484a000000816003546114409190611b72565b1115611481576040517f08c379a000000000000000000000000000000000000000000000000000000000815260040161147890611f35565b60405180910390fd5b80600360008282546114939190611b72565b9250508190555080600560008473ffffffffffffffffffffffffffffffffffffffff1673ffffffffffffffffffffffffffffffffffffffff16815260200190815260200160002060008282546114e99190611b72565b925050819055508173ffffffffffffffffffffffffffffffffffffffff16600073ffffffffffffffffffffffffffffffffffffffff167fddf252ad1be2c89b69c2b068fc378daa952ba7f163c4a11628f55a4df523b3ef8360405161154e919061172a565b60405180910390a35050565b600081519050919050565b600082825260208201905092915050565b60005b83811015611594578082015181840152602081019050611579565b60008484015250505050565b6000601f19601f8301169050919050565b60006115bc8261155a565b6115c68185611565565b93506115d6818560208601611576565b6115df816115a0565b840191505092915050565b6000602082019050818103600083015261160481846115b1565b905092915050565b600080fd5b600073ffffffffffffffffffffffffffffffffffffffff82169050919050565b600061163c82611611565b9050919050565b61164c81611631565b811461165757600080fd5b50565b60008135905061166981611643565b92915050565b6000819050919050565b6116828161166f565b811461168d57600080fd5b50565b60008135905061169f81611679565b92915050565b600080604083850312156116bc576116bb61160c565b5b60006116ca8582860161165a565b92505060206116db85828601611690565b9150509250929050565b60008115159050919050565b6116fa816116e5565b82525050565b600060208201905061171560008301846116f1565b92915050565b6117248161166f565b82525050565b600060208201905061173f600083018461171b565b92915050565b60008060006060848603121561175e5761175d61160c565b5b600061176c8682870161165a565b935050602061177d8682870161165a565b925050604061178e86828701611690565b9150509250925092565b600060ff82169050919050565b6117ae81611798565b82525050565b60006020820190506117c960008301846117a5565b92915050565b6000602082840312156117e5576117e461160c565b5b60006117f38482850161165a565b91505092915050565b6000602082840312156118125761181161160c565b5b600061182084828501611690565b91505092915050565b61183281611631565b82525050565b600060208201905061184d6000830184611829565b92915050565b6000806040838503121561186a5761186961160c565b5b60006118788582860161165a565b92505060206118898582860161165a565b9150509250929050565b7f4e487b7100000000000000000000000000000000000000000000000000000000600052602260045260246000fd5b600060028204905060018216806118da57607f821691505b6020821081036118ed576118ec611893565b5b50919050565b7f417070726f766520746f207a65726f2061646472657373000000000000000000600082015250565b6000611929601783611565565b9150611934826118f3565b602082019050919050565b600060208201905081810360008301526119588161191c565b9050919050565b7f5472616e7366657220746f207a65726f20616464726573730000000000000000600082015250565b6000611995601883611565565b91506119a08261195f565b602082019050919050565b600060208201905081810360008301526119c481611988565b9050919050565b7f5a65726f207472616e7366657200000000000000000000000000000000000000600082015250565b6000611a01600d83611565565b9150611a0c826119cb565b602082019050919050565b60006020820190508181036000830152611a30816119f4565b9050919050565b7f496e73756666696369656e742062616c616e6365000000000000000000000000600082015250565b6000611a6d601483611565565b9150611a7882611a37565b602082019050919050565b60006020820190508181036000830152611a9c81611a60565b9050919050565b7f416c6c6f77616e63652065786365656465640000000000000000000000000000600082015250565b6000611ad9601283611565565b9150611ae482611aa3565b602082019050919050565b60006020820190508181036000830152611b0881611acc565b9050919050565b7f4e487b7100000000000000000000000000000000000000000000000000000000600052601160045260246000fd5b6000611b498261166f565b9150611b548361166f565b9250828203905081811115611b6c57611b6b611b0f565b5b92915050565b6000611b7d8261166f565b9150611b888361166f565b9250828201905080821115611ba057611b9f611b0f565b5b92915050565b7f4f6e6c79206f776e657200000000000000000000000000000000000000000000600082015250565b6000611bdc600a83611565565b9150611be782611ba6565b602082019050919050565b60006020820190508181036000830152611c0b81611bcf565b9050919050565b7f5a65726f20616d6f756e74000000000000000000000000000000000000000000600082015250565b6000611c48600b83611565565b9150611c5382611c12565b602082019050919050565b60006020820190508181036000830152611c7781611c3b565b9050919050565b7f43616e206f6e6c792072657175657374206f6e6365206576657279203234206860008201527f6f75727300000000000000000000000000000000000000000000000000000000602082015250565b6000611cda602483611565565b9150611ce582611c7e565b604082019050919050565b60006020820190508181036000830152611d0981611ccd565b9050919050565b6000604082019050611d25600083018561171b565b611d32602083018461171b565b9392505050565b7f53656c66207472616e73666572206e6f7420616c6c6f77656400000000000000600082015250565b6000611d6f601983611565565b9150611d7a82611d39565b602082019050919050565b60006020820190508181036000830152611d9e81611d62565b9050919050565b7f5a65726f20616464726573730000000000000000000000000000000000000000600082015250565b6000611ddb600c83611565565b9150611de682611da5565b602082019050919050565b60006020820190508181036000830152611e0a81611dce565b9050919050565b7f4d696e7420746f207a65726f2061646472657373000000000000000000000000600082015250565b6000611e47601483611565565b9150611e5282611e11565b602082019050919050565b60006020820190508181036000830152611e7681611e3a565b9050919050565b7f416d6f756e74206d7573742062652067726561746572207468616e207a65726f600082015250565b6000611eb3602083611565565b9150611ebe82611e7d565b602082019050919050565b60006020820190508181036000830152611ee281611ea6565b9050919050565b7f4d617820737570706c7920657863656564656400000000000000000000000000600082015250565b6000611f1f601383611565565b9150611f2a82611ee9565b602082019050919050565b60006020820190508181036000830152611f4e81611f12565b905091905056fea26469706673582212208804a3e4c84940b551de9a2a894c066c4912508ea11b277f22bc5f744de637d964736f6c634300081c0033",
  "linkReferences": {},
  "deployedLinkReferences": {}
}